{
  "_format": "hh-sol-artifact-1",
  "contractName": "Transactions",
  "sourceName": "contracts/Transactions.sol",
  "abi": [
    {
      "anonymous": false,
      "inputs": [
        {
          "indexed": false,
          "internalType": "address",
          "name": "from",
          "type": "address"
        },
        {
          "indexed": false,
          "internalType": "address",
          "name": "receiver",
          "type": "address"
        },
        {
          "indexed": false,
          "internalType": "uint256",
          "name": "amount",
          "type": "uint256"
        },
        {
          "indexed": false,
          "internalType": "string",
          "name": "message",
          "type": "string"
        },
        {
          "indexed": false,
          "internalType": "uint256",
          "name": "timestamp",
          "type": "uint256"
        },
        {
          "indexed": false,
          "internalType": "string",
          "name": "keyword",
          "type": "string"
        }
      ],
      "name": "Transfer",
      "type": "event"
    },
    {
      "inputs": [],
      "name": "addTestNumber",
      "outputs": [],
      "stateMutability": "nonpayable",
      "type": "function"
    },
    {
      "inputs": [
        {
          "internalType": "address payable",
          "name": "revicer",
          "type": "address"
        },
        {
          "internalType": "uint256",
          "name": "amount",
          "type": "uint256"
        },
        {
          "internalType": "string",
          "name": "message",
          "type": "string"
        },
        {
          "internalType": "string",
          "name": "keyword",
          "type": "string"
        }
      ],
      "name": "addToBlockchain",
      "outputs": [],
      "stateMutability": "nonpayable",
      "type": "function"
    },
    {
      "inputs": [],
      "name": "getAllTransactions",
      "outputs": [
        {
          "components": [
            {
              "internalType": "address",
              "name": "sender",
              "type": "address"
            },
            {
              "internalType": "address",
              "name": "reciver",
              "type": "address"
            },
            {
              "internalType": "uint256",
              "name": "amount",
              "type": "uint256"
            },
            {
              "internalType": "string",
              "name": "message",
              "type": "string"
            },
            {
              "internalType": "uint256",
              "name": "timestamp",
              "type": "uint256"
            },
            {
              "internalType": "string",
              "name": "keyword",
              "type": "string"
            }
          ],
          "internalType": "struct Transactions.TransferStruct[]",
          "name": "",
          "type": "tuple[]"
        }
      ],
      "stateMutability": "view",
      "type": "function"
    },
    {
      "inputs": [],
      "name": "getTestNumber",
      "outputs": [
        {
          "internalType": "uint256",
          "name": "",
          "type": "uint256"
        }
      ],
      "stateMutability": "view",
      "type": "function"
    },
    {
      "inputs": [],
      "name": "getTransactionsCount",
      "outputs": [
        {
          "internalType": "uint256",
          "name": "",
          "type": "uint256"
        }
      ],
      "stateMutability": "view",
      "type": "function"
    },
    {
      "inputs": [
        {
          "internalType": "uint256",
          "name": "amount",
          "type": "uint256"
        }
      ],
      "name": "setTestNumber",
      "outputs": [],
      "stateMutability": "nonpayable",
      "type": "function"
    }
  ],
  "bytecode": "0x608060405234801561001057600080fd5b50610ccb806100206000396000f3fe608060405234801561001057600080fd5b50600436106100625760003560e01c806327506f5314610067578063519c9dc614610085578063578cb8f9146100a1578063aeb71b07146100bf578063cc2d7ead146100dd578063f573d4c8146100f9575b600080fd5b61006f610103565b60405161007c9190610977565b60405180910390f35b61009f600480360381019061009a9190610709565b610346565b005b6100a9610350565b6040516100b69190610999565b60405180910390f35b6100c7610359565b6040516100d49190610999565b60405180910390f35b6100f760048036038101906100f29190610676565b610363565b005b610101610525565b005b60606002805480602002602001604051908101604052809291908181526020016000905b8282101561033d57838290600052602060002090600602016040518060c00160405290816000820160009054906101000a900473ffffffffffffffffffffffffffffffffffffffff1673ffffffffffffffffffffffffffffffffffffffff1673ffffffffffffffffffffffffffffffffffffffff1681526020016001820160009054906101000a900473ffffffffffffffffffffffffffffffffffffffff1673ffffffffffffffffffffffffffffffffffffffff1673ffffffffffffffffffffffffffffffffffffffff1681526020016002820154815260200160038201805461021090610b97565b80601f016020809104026020016040519081016040528092919081815260200182805461023c90610b97565b80156102895780601f1061025e57610100808354040283529160200191610289565b820191906000526020600020905b81548152906001019060200180831161026c57829003601f168201915b50505050508152602001600482015481526020016005820180546102ac90610b97565b80601f01602080910402602001604051908101604052809291908181526020018280546102d890610b97565b80156103255780601f106102fa57610100808354040283529160200191610325565b820191906000526020600020905b81548152906001019060200180831161030857829003601f168201915b50505050508152505081526020019060010190610127565b50505050905090565b8060018190555050565b60008054905090565b6000600154905090565b60016000808282546103759190610a7b565b9250508190555060026040518060c001604052803373ffffffffffffffffffffffffffffffffffffffff1681526020018673ffffffffffffffffffffffffffffffffffffffff16815260200185815260200184815260200142815260200183815250908060018154018082558091505060019003906000526020600020906006020160009091909190915060008201518160000160006101000a81548173ffffffffffffffffffffffffffffffffffffffff021916908373ffffffffffffffffffffffffffffffffffffffff16021790555060208201518160010160006101000a81548173ffffffffffffffffffffffffffffffffffffffff021916908373ffffffffffffffffffffffffffffffffffffffff1602179055506040820151816002015560608201518160030190805190602001906104b4929190610541565b506080820151816004015560a08201518160050190805190602001906104db929190610541565b5050507f416cfa4330a4565f45c2fd2dd4826a83a37443aba2ce6f79477c7355afac35fa33858585428660405161051796959493929190610908565b60405180910390a150505050565b6005600160008282546105389190610a7b565b92505081905550565b82805461054d90610b97565b90600052602060002090601f01602090048101928261056f57600085556105b6565b82601f1061058857805160ff19168380011785556105b6565b828001600101855582156105b6579182015b828111156105b557825182559160200191906001019061059a565b5b5090506105c391906105c7565b5090565b5b808211156105e05760008160009055506001016105c8565b5090565b60006105f76105f2846109e5565b6109b4565b90508281526020810184848401111561060f57600080fd5b61061a848285610b55565b509392505050565b60008135905061063181610c67565b92915050565b600082601f83011261064857600080fd5b81356106588482602086016105e4565b91505092915050565b60008135905061067081610c7e565b92915050565b6000806000806080858703121561068c57600080fd5b600061069a87828801610622565b94505060206106ab87828801610661565b935050604085013567ffffffffffffffff8111156106c857600080fd5b6106d487828801610637565b925050606085013567ffffffffffffffff8111156106f157600080fd5b6106fd87828801610637565b91505092959194509250565b60006020828403121561071b57600080fd5b600061072984828501610661565b91505092915050565b600061073e838361085a565b905092915050565b61074f81610b1f565b82525050565b61075e81610ad1565b82525050565b61076d81610ad1565b82525050565b600061077e82610a25565b6107888185610a48565b93508360208202850161079a85610a15565b8060005b858110156107d657848403895281516107b78582610732565b94506107c283610a3b565b925060208a0199505060018101905061079e565b50829750879550505050505092915050565b60006107f382610a30565b6107fd8185610a59565b935061080d818560208601610b64565b61081681610c56565b840191505092915050565b600061082c82610a30565b6108368185610a6a565b9350610846818560208601610b64565b61084f81610c56565b840191505092915050565b600060c0830160008301516108726000860182610755565b5060208301516108856020860182610755565b50604083015161089860408601826108ea565b50606083015184820360608601526108b082826107e8565b91505060808301516108c560808601826108ea565b5060a083015184820360a08601526108dd82826107e8565b9150508091505092915050565b6108f381610b15565b82525050565b61090281610b15565b82525050565b600060c08201905061091d6000830189610764565b61092a6020830188610746565b61093760408301876108f9565b81810360608301526109498186610821565b905061095860808301856108f9565b81810360a083015261096a8184610821565b9050979650505050505050565b600060208201905081810360008301526109918184610773565b905092915050565b60006020820190506109ae60008301846108f9565b92915050565b6000604051905081810181811067ffffffffffffffff821117156109db576109da610c27565b5b8060405250919050565b600067ffffffffffffffff821115610a00576109ff610c27565b5b601f19601f8301169050602081019050919050565b6000819050602082019050919050565b600081519050919050565b600081519050919050565b6000602082019050919050565b600082825260208201905092915050565b600082825260208201905092915050565b600082825260208201905092915050565b6000610a8682610b15565b9150610a9183610b15565b9250827fffffffffffffffffffffffffffffffffffffffffffffffffffffffffffffffff03821115610ac657610ac5610bc9565b5b828201905092915050565b6000610adc82610af5565b9050919050565b6000610aee82610af5565b9050919050565b600073ffffffffffffffffffffffffffffffffffffffff82169050919050565b6000819050919050565b6000610b2a82610b31565b9050919050565b6000610b3c82610b43565b9050919050565b6000610b4e82610af5565b9050919050565b82818337600083830152505050565b60005b83811015610b82578082015181840152602081019050610b67565b83811115610b91576000848401525b50505050565b60006002820490506001821680610baf57607f821691505b60208210811415610bc357610bc2610bf8565b5b50919050565b7f4e487b7100000000000000000000000000000000000000000000000000000000600052601160045260246000fd5b7f4e487b7100000000000000000000000000000000000000000000000000000000600052602260045260246000fd5b7f4e487b7100000000000000000000000000000000000000000000000000000000600052604160045260246000fd5b6000601f19601f8301169050919050565b610c7081610ae3565b8114610c7b57600080fd5b50565b610c8781610b15565b8114610c9257600080fd5b5056fea26469706673582212207932ece834d0d6afb6ec55c2981848002adffb3d4ed56313a19eb97e59c4a33664736f6c63430008000033",
  "linkReferences": {},
  "deployedLinkReferences": {}
}