{
  "_format": "hh-sol-artifact-1",
  "contractName": "Transactions",
  "sourceName": "contracts/Transactions.sol",
  "abi": [
    {
      "anonymous": false,
      "inputs": [
        {
          "indexed": false,
          "internalType": "address",
          "name": "from",
          "type": "address"
        },
        {
          "indexed": false,
          "internalType": "address",
          "name": "receiver",
          "type": "address"
        },
        {
          "indexed": false,
          "internalType": "uint256",
          "name": "amount",
          "type": "uint256"
        },
        {
          "indexed": false,
          "internalType": "string",
          "name": "message",
          "type": "string"
        },
        {
          "indexed": false,
          "internalType": "uint256",
          "name": "timestamp",
          "type": "uint256"
        },
        {
          "indexed": false,
          "internalType": "string",
          "name": "keyword",
          "type": "string"
        }
      ],
      "name": "Transfer",
      "type": "event"
    },
    {
      "inputs": [
        {
          "internalType": "address payable",
          "name": "revicer",
          "type": "address"
        },
        {
          "internalType": "uint256",
          "name": "amount",
          "type": "uint256"
        },
        {
          "internalType": "string",
          "name": "message",
          "type": "string"
        },
        {
          "internalType": "string",
          "name": "keyword",
          "type": "string"
        }
      ],
      "name": "addToBlockchain",
      "outputs": [],
      "stateMutability": "nonpayable",
      "type": "function"
    },
    {
      "inputs": [],
      "name": "getAllTransactions",
      "outputs": [
        {
          "components": [
            {
              "internalType": "address",
              "name": "sender",
              "type": "address"
            },
            {
              "internalType": "address",
              "name": "reciver",
              "type": "address"
            },
            {
              "internalType": "uint256",
              "name": "amount",
              "type": "uint256"
            },
            {
              "internalType": "string",
              "name": "message",
              "type": "string"
            },
            {
              "internalType": "uint256",
              "name": "timestamp",
              "type": "uint256"
            },
            {
              "internalType": "string",
              "name": "keyword",
              "type": "string"
            }
          ],
          "internalType": "struct Transactions.TransferStruct[]",
          "name": "",
          "type": "tuple[]"
        }
      ],
      "stateMutability": "view",
      "type": "function"
    },
    {
      "inputs": [],
      "name": "getTestNumber",
      "outputs": [
        {
          "internalType": "uint256",
          "name": "",
          "type": "uint256"
        }
      ],
      "stateMutability": "nonpayable",
      "type": "function"
    },
    {
      "inputs": [],
      "name": "getTransactionsCount",
      "outputs": [
        {
          "internalType": "uint256",
          "name": "",
          "type": "uint256"
        }
      ],
      "stateMutability": "view",
      "type": "function"
    }
  ],
  "bytecode": "0x608060405234801561001057600080fd5b50610c4a806100206000396000f3fe608060405234801561001057600080fd5b506004361061004c5760003560e01c806327506f5314610051578063578cb8f91461006f578063aeb71b071461008d578063cc2d7ead146100ab575b600080fd5b6100596100c7565b60405161006691906108f6565b60405180910390f35b61007761030a565b6040516100849190610918565b60405180910390f35b610095610313565b6040516100a29190610918565b60405180910390f35b6100c560048036038101906100c0919061061e565b610327565b005b60606002805480602002602001604051908101604052809291908181526020016000905b8282101561030157838290600052602060002090600602016040518060c00160405290816000820160009054906101000a900473ffffffffffffffffffffffffffffffffffffffff1673ffffffffffffffffffffffffffffffffffffffff1673ffffffffffffffffffffffffffffffffffffffff1681526020016001820160009054906101000a900473ffffffffffffffffffffffffffffffffffffffff1673ffffffffffffffffffffffffffffffffffffffff1673ffffffffffffffffffffffffffffffffffffffff168152602001600282015481526020016003820180546101d490610b16565b80601f016020809104026020016040519081016040528092919081815260200182805461020090610b16565b801561024d5780601f106102225761010080835404028352916020019161024d565b820191906000526020600020905b81548152906001019060200180831161023057829003601f168201915b505050505081526020016004820154815260200160058201805461027090610b16565b80601f016020809104026020016040519081016040528092919081815260200182805461029c90610b16565b80156102e95780601f106102be576101008083540402835291602001916102e9565b820191906000526020600020905b8154815290600101906020018083116102cc57829003601f168201915b505050505081525050815260200190600101906100eb565b50505050905090565b60008054905090565b60006212d687600181905550600154905090565b600160008082825461033991906109fa565b9250508190555060026040518060c001604052803373ffffffffffffffffffffffffffffffffffffffff1681526020018673ffffffffffffffffffffffffffffffffffffffff16815260200185815260200184815260200142815260200183815250908060018154018082558091505060019003906000526020600020906006020160009091909190915060008201518160000160006101000a81548173ffffffffffffffffffffffffffffffffffffffff021916908373ffffffffffffffffffffffffffffffffffffffff16021790555060208201518160010160006101000a81548173ffffffffffffffffffffffffffffffffffffffff021916908373ffffffffffffffffffffffffffffffffffffffff1602179055506040820151816002015560608201518160030190805190602001906104789291906104e9565b506080820151816004015560a082015181600501908051906020019061049f9291906104e9565b5050507f416cfa4330a4565f45c2fd2dd4826a83a37443aba2ce6f79477c7355afac35fa3385858542866040516104db96959493929190610887565b60405180910390a150505050565b8280546104f590610b16565b90600052602060002090601f016020900481019282610517576000855561055e565b82601f1061053057805160ff191683800117855561055e565b8280016001018555821561055e579182015b8281111561055d578251825591602001919060010190610542565b5b50905061056b919061056f565b5090565b5b80821115610588576000816000905550600101610570565b5090565b600061059f61059a84610964565b610933565b9050828152602081018484840111156105b757600080fd5b6105c2848285610ad4565b509392505050565b6000813590506105d981610be6565b92915050565b600082601f8301126105f057600080fd5b813561060084826020860161058c565b91505092915050565b60008135905061061881610bfd565b92915050565b6000806000806080858703121561063457600080fd5b6000610642878288016105ca565b945050602061065387828801610609565b935050604085013567ffffffffffffffff81111561067057600080fd5b61067c878288016105df565b925050606085013567ffffffffffffffff81111561069957600080fd5b6106a5878288016105df565b91505092959194509250565b60006106bd83836107d9565b905092915050565b6106ce81610a9e565b82525050565b6106dd81610a50565b82525050565b6106ec81610a50565b82525050565b60006106fd826109a4565b61070781856109c7565b93508360208202850161071985610994565b8060005b85811015610755578484038952815161073685826106b1565b9450610741836109ba565b925060208a0199505060018101905061071d565b50829750879550505050505092915050565b6000610772826109af565b61077c81856109d8565b935061078c818560208601610ae3565b61079581610bd5565b840191505092915050565b60006107ab826109af565b6107b581856109e9565b93506107c5818560208601610ae3565b6107ce81610bd5565b840191505092915050565b600060c0830160008301516107f160008601826106d4565b50602083015161080460208601826106d4565b5060408301516108176040860182610869565b506060830151848203606086015261082f8282610767565b91505060808301516108446080860182610869565b5060a083015184820360a086015261085c8282610767565b9150508091505092915050565b61087281610a94565b82525050565b61088181610a94565b82525050565b600060c08201905061089c60008301896106e3565b6108a960208301886106c5565b6108b66040830187610878565b81810360608301526108c881866107a0565b90506108d76080830185610878565b81810360a08301526108e981846107a0565b9050979650505050505050565b6000602082019050818103600083015261091081846106f2565b905092915050565b600060208201905061092d6000830184610878565b92915050565b6000604051905081810181811067ffffffffffffffff8211171561095a57610959610ba6565b5b8060405250919050565b600067ffffffffffffffff82111561097f5761097e610ba6565b5b601f19601f8301169050602081019050919050565b6000819050602082019050919050565b600081519050919050565b600081519050919050565b6000602082019050919050565b600082825260208201905092915050565b600082825260208201905092915050565b600082825260208201905092915050565b6000610a0582610a94565b9150610a1083610a94565b9250827fffffffffffffffffffffffffffffffffffffffffffffffffffffffffffffffff03821115610a4557610a44610b48565b5b828201905092915050565b6000610a5b82610a74565b9050919050565b6000610a6d82610a74565b9050919050565b600073ffffffffffffffffffffffffffffffffffffffff82169050919050565b6000819050919050565b6000610aa982610ab0565b9050919050565b6000610abb82610ac2565b9050919050565b6000610acd82610a74565b9050919050565b82818337600083830152505050565b60005b83811015610b01578082015181840152602081019050610ae6565b83811115610b10576000848401525b50505050565b60006002820490506001821680610b2e57607f821691505b60208210811415610b4257610b41610b77565b5b50919050565b7f4e487b7100000000000000000000000000000000000000000000000000000000600052601160045260246000fd5b7f4e487b7100000000000000000000000000000000000000000000000000000000600052602260045260246000fd5b7f4e487b7100000000000000000000000000000000000000000000000000000000600052604160045260246000fd5b6000601f19601f8301169050919050565b610bef81610a62565b8114610bfa57600080fd5b50565b610c0681610a94565b8114610c1157600080fd5b5056fea264697066735822122084683d211d1b3bf31295d9ca14290429d8000f8c2a1032a73bc7b94eef3ee8b064736f6c63430008000033",
  "linkReferences": {},
  "deployedLinkReferences": {}
}